{"abi":[{"type":"constructor","inputs":[{"name":"_address","type":"string","internalType":"string"},{"name":"_zip","type":"string","internalType":"string"},{"name":"_city","type":"string","internalType":"string"},{"name":"_realtorFee","type":"uint256","internalType":"uint256"},{"name":"_price","type":"uint256","internalType":"uint256"},{"name":"_realtor","type":"address","internalType":"address payable"},{"name":"_seller","type":"address","internalType":"address payable"},{"name":"_buyer","type":"address","internalType":"address payable"}],"stateMutability":"nonpayable"},{"type":"function","name":"anyWithdrawFromTransaction","inputs":[],"outputs":[],"stateMutability":"nonpayable"},{"type":"function","name":"buyer","inputs":[],"outputs":[{"name":"","type":"address","internalType":"address payable"}],"stateMutability":"view"},{"type":"function","name":"buyerFinalizeTransaction","inputs":[],"outputs":[],"stateMutability":"payable"},{"type":"function","name":"buyerSignContractAndPayDeposit","inputs":[],"outputs":[],"stateMutability":"payable"},{"type":"function","name":"city","inputs":[],"outputs":[{"name":"","type":"string","internalType":"string"}],"stateMutability":"view"},{"type":"function","name":"contractState","inputs":[],"outputs":[{"name":"","type":"uint8","internalType":"enum HomeTransaction.ContractState"}],"stateMutability":"view"},{"type":"function","name":"deposit","inputs":[],"outputs":[{"name":"","type":"uint256","internalType":"uint256"}],"stateMutability":"view"},{"type":"function","name":"finalizeDeadline","inputs":[],"outputs":[{"name":"","type":"uint256","internalType":"uint256"}],"stateMutability":"view"},{"type":"function","name":"homeAddress","inputs":[],"outputs":[{"name":"","type":"string","internalType":"string"}],"stateMutability":"view"},{"type":"function","name":"price","inputs":[],"outputs":[{"name":"","type":"uint256","internalType":"uint256"}],"stateMutability":"view"},{"type":"function","name":"realtor","inputs":[],"outputs":[{"name":"","type":"address","internalType":"address payable"}],"stateMutability":"view"},{"type":"function","name":"realtorFee","inputs":[],"outputs":[{"name":"","type":"uint256","internalType":"uint256"}],"stateMutability":"view"},{"type":"function","name":"realtorReviewedClosingConditions","inputs":[{"name":"accepted","type":"bool","internalType":"bool"}],"outputs":[],"stateMutability":"nonpayable"},{"type":"function","name":"seller","inputs":[],"outputs":[{"name":"","type":"address","internalType":"address payable"}],"stateMutability":"view"},{"type":"function","name":"sellerSignContract","inputs":[],"outputs":[],"stateMutability":"payable"},{"type":"function","name":"zip","inputs":[],"outputs":[{"name":"","type":"string","internalType":"string"}],"stateMutability":"view"}],"bytecode":{"object":"0x60806040526001805460ff19908116909155600b80549091169055348015610025575f5ffd5b506040516110a63803806110a6833981016040819052610044916102d1565b60015f556001600160a01b0383161580159061006857506001600160a01b03821615155b801561007c57506001600160a01b03811615155b6100c15760405162461bcd60e51b8152602060048201526011602482015270496e76616c69642061646472657373657360781b60448201526064015b60405180910390fd5b806001600160a01b0316826001600160a01b03160361012d5760405162461bcd60e51b815260206004820152602260248201527f53656c6c657220616e64206275796572206d75737420626520646966666572656044820152611b9d60f21b60648201526084016100b8565b8484101561018e5760405162461bcd60e51b815260206004820152602860248201527f5072696365206e6565647320746f206265206d6f7265207468616e207265616c604482015267746f72206665652160c01b60648201526084016100b8565b600180546001600160a01b0380861661010002610100600160a81b031990921691909117909155600280548483166001600160a01b031991821617909155600380549284169290911691909117905560046101e98982610435565b5060056101f68882610435565b5060066102038782610435565b50505060089190915550600755506104f3915050565b634e487b7160e01b5f52604160045260245ffd5b5f82601f83011261023c575f5ffd5b81516001600160401b0381111561025557610255610219565b604051601f8201601f19908116603f011681016001600160401b038111828210171561028357610283610219565b60405281815283820160200185101561029a575f5ffd5b8160208501602083015e5f918101602001919091529392505050565b80516001600160a01b03811681146102cc575f5ffd5b919050565b5f5f5f5f5f5f5f5f610100898b0312156102e9575f5ffd5b88516001600160401b038111156102fe575f5ffd5b61030a8b828c0161022d565b60208b015190995090506001600160401b03811115610327575f5ffd5b6103338b828c0161022d565b60408b015190985090506001600160401b03811115610350575f5ffd5b61035c8b828c0161022d565b60608b015160808c01519198509650945061037b905060a08a016102b6565b925061038960c08a016102b6565b915061039760e08a016102b6565b90509295985092959890939650565b600181811c908216806103ba57607f821691505b6020821081036103d857634e487b7160e01b5f52602260045260245ffd5b50919050565b601f821115610430578282111561043057805f5260205f20601f840160051c602085101561040957505f5b90810190601f840160051c035f5b8181101561042c575f83820155600101610417565b5050505b505050565b81516001600160401b0381111561044e5761044e610219565b6104628161045c84546103a6565b846103de565b6020601f821160018114610494575f831561047d5750848201515b5f19600385901b1c1916600184901b1784556104ec565b5f84815260208120601f198516915b828110156104c357878501518255602094850194600190920191016104a3565b50848210156104e057868401515f19600387901b60f8161c191681555b505060018360011b0184555b5050505050565b610ba6806105005f395ff3fe6080604052600436106100ee575f3560e01c806385209ee011610087578063ba0892d911610057578063ba0892d914610242578063d0e30db014610256578063f629ad301461026b578063fd0160fe1461027f575f5ffd5b806385209ee0146101cf578063968e28e8146101f5578063a035b1fe14610218578063a0cb23cd1461022d575f5ffd5b80633e23b9f9116100c25780633e23b9f9146101655780634ed523e9146101895780636b0ccb76146101915780637150d8ae146101b0575f5ffd5b8062919055146100f257806308551a531461011c57806318be633f146101535780632323f8f51461015d575b5f5ffd5b3480156100fd575f5ffd5b50610106610293565b60405161011391906109ff565b60405180910390f35b348015610127575f5ffd5b5060025461013b906001600160a01b031681565b6040516001600160a01b039091168152602001610113565b61015b61031f565b005b61015b6103c1565b348015610170575f5ffd5b5060015461013b9061010090046001600160a01b031681565b61015b61058f565b34801561019c575f5ffd5b5061015b6101ab366004610a34565b6106e0565b3480156101bb575f5ffd5b5060035461013b906001600160a01b031681565b3480156101da575f5ffd5b506001546101e89060ff1681565b6040516101139190610a6e565b348015610200575f5ffd5b5061020a60075481565b604051908152602001610113565b348015610223575f5ffd5b5061020a60085481565b348015610238575f5ffd5b5061020a600a5481565b34801561024d575f5ffd5b5061015b610822565b348015610261575f5ffd5b5061020a60095481565b348015610276575f5ffd5b5061010661098e565b34801561028a575f5ffd5b5061010661099b565b600580546102a090610a94565b80601f01602080910402602001604051908101604052809291908181526020018280546102cc90610a94565b80156103175780601f106102ee57610100808354040283529160200191610317565b820191905f5260205f20905b8154815290600101906020018083116102fa57829003601f168201915b505050505081565b6002546001600160a01b0316331461037e5760405162461bcd60e51b815260206004820152601d60248201527f4f6e6c792073656c6c65722063616e207369676e20636f6e747261637400000060448201526064015b60405180910390fd5b5f60015460ff16600581111561039657610396610a5a565b146103b35760405162461bcd60e51b815260040161037590610acc565b6001805460ff191681179055565b6103c96109a8565b6003546001600160a01b0316331461042f5760405162461bcd60e51b815260206004820152602360248201527f4f6e6c792062757965722063616e2066696e616c697a65207472616e7361637460448201526234b7b760e91b6064820152608401610375565b600360015460ff16600581111561044857610448610a5a565b146104655760405162461bcd60e51b815260040161037590610acc565b6008546009546104759034610b0e565b146104e85760405162461bcd60e51b815260206004820152603f60248201527f4275796572206e6565647320746f20706179207468652072657374206f66207460448201527f686520636f737420746f2066696e616c697a65207472616e73616374696f6e006064820152608401610375565b6001805460ff191660041790556007546008545f9161050691610b27565b5f60098190556002546040519293506001600160a01b03169183156108fc0291849190818181858888f19350505050158015610544573d5f5f3e3d5ffd5b506001546007546040516101009092046001600160a01b0316916108fc82150291905f818181858888f19350505050158015610582573d5f5f3e3d5ffd5b505061058d60015f55565b565b6105976109a8565b6003546001600160a01b031633146105f15760405162461bcd60e51b815260206004820152601c60248201527f4f6e6c792062757965722063616e207369676e20636f6e7472616374000000006044820152606401610375565b6001805460ff16600581111561060957610609610a5a565b146106265760405162461bcd60e51b815260040161037590610acc565b5f6064600a6008546106389190610b3a565b6106429190610b51565b905080341015801561065657506008543411155b6106b65760405162461bcd60e51b815260206004820152602b60248201527f4275796572206e6565647320746f206465706f736974206265747765656e203160448201526a302520616e64203130302560a81b6064820152608401610375565b6001805460ff19166002179055346009556106d361012c42610b0e565b600a555061058d60015f55565b6106e86109a8565b60015461010090046001600160a01b0316331461075a5760405162461bcd60e51b815260206004820152602a60248201527f4f6e6c79207265616c746f722063616e2072657669657720636c6f73696e6720604482015269636f6e646974696f6e7360b01b6064820152608401610375565b600260015460ff16600581111561077357610773610a5a565b146107905760405162461bcd60e51b815260040161037590610acc565b80156107b557600b805460ff1990811660019081179092558154166003179055610816565b600b805460ff19908116600217909155600180549091166005179055600980545f9182905560035460405191926001600160a01b03909116916108fc84150291849190818181858888f19350505050158015610813573d5f5f3e3d5ffd5b50505b61081f60015f55565b50565b61082a6109a8565b6003546001600160a01b0316331480610845575042600a5411155b6108ad5760405162461bcd60e51b815260206004820152603360248201527f4f6e6c792062757965722063616e207769746864726177206265666f7265207460448201527272616e73616374696f6e20646561646c696e6560681b6064820152608401610375565b600360015460ff1660058111156108c6576108c6610a5a565b146108e35760405162461bcd60e51b815260040161037590610acc565b6001805460ff191660051790556007546009545f9161090191610b27565b6007545f600981905560025460405193945091926001600160a01b039092169184156108fc0291859190818181858888f19350505050158015610946573d5f5f3e3d5ffd5b506001546040516101009091046001600160a01b0316906108fc8315029083905f818181858888f19350505050158015610982573d5f5f3e3d5ffd5b50505061058d60015f55565b600480546102a090610a94565b600680546102a090610a94565b60025f54036109f95760405162461bcd60e51b815260206004820152601f60248201527f5265656e7472616e637947756172643a207265656e7472616e742063616c6c006044820152606401610375565b60025f55565b602081525f82518060208401528060208501604085015e5f604082850101526040601f19601f83011684010191505092915050565b5f60208284031215610a44575f5ffd5b81358015158114610a53575f5ffd5b9392505050565b634e487b7160e01b5f52602160045260245ffd5b6020810160068310610a8e57634e487b7160e01b5f52602160045260245ffd5b91905290565b600181811c90821680610aa857607f821691505b602082108103610ac657634e487b7160e01b5f52602260045260245ffd5b50919050565b60208082526014908201527357726f6e6720636f6e747261637420737461746560601b604082015260600190565b634e487b7160e01b5f52601160045260245ffd5b80820180821115610b2157610b21610afa565b92915050565b81810381811115610b2157610b21610afa565b8082028115828204841417610b2157610b21610afa565b5f82610b6b57634e487b7160e01b5f52601260045260245ffd5b50049056fea2646970667358221220175d486b17111bee0fc4452e6a42eb45097d1320d3679556bdca99ad373c3b9964736f6c63430008210033","linkReferences":{}},"methodIdentifiers":{"anyWithdrawFromTransaction()":"ba0892d9","buyer()":"7150d8ae","buyerFinalizeTransaction()":"2323f8f5","buyerSignContractAndPayDeposit()":"4ed523e9","city()":"fd0160fe","contractState()":"85209ee0","deposit()":"d0e30db0","finalizeDeadline()":"a0cb23cd","homeAddress()":"f629ad30","price()":"a035b1fe","realtor()":"3e23b9f9","realtorFee()":"968e28e8","realtorReviewedClosingConditions(bool)":"6b0ccb76","seller()":"08551a53","sellerSignContract()":"18be633f","zip()":"00919055"},"id":21}